:100000000C9434000C949B000C9451000C945100FF
:100010000C9451000C9451000C9451000C9451001C
:100020000C9451000C9451000C9451000C9451000C
:100030000C9451000C9451000C9451000C945100FC
:100040000C9451000C9451000C9451000C945100EC
:100050000C9451000C9451000C9451000C945100DC
:100060000C9451000C94510011241FBECFEFD8E026
:10007000DEBFCDBF11E0A0E0B1E0E0E2FFE002C0F2
:1000800005900D92A033B107D9F721E0A0E3B1E0CC
:1000900001C01D92AB33B207E1F70E94BA000C9485
:1000A0008E070C940000E0ECF0E0908195FFFDCF0E
:1000B0008093C60080E090E00895CF93DF930E9484
:1000C0003B01EC0185E290E09983888322E02A835A
:1000D0009C838B8321E02D839F838E8325E028875B
:1000E0009A87898723E02B879D878C8784E08E877A
:1000F000E9E6F0E0808182608083E89ACE010E9488
:100100002B02CE01DF91CF910895CF93DF93EC01C5
:1001100069E171E00E947704892B11F4289A08C0E4
:100120006CE171E0CE010E947704892B09F42898D4
:10013000DF91CF9108951F920F920FB60F92112465
:100140008F9381E0809330018F910F900FBE0F90BD
:100150001F9018951092C50083E38093C400E1ECD2
:10016000F0E0808188618083E2ECF0E0808186604D
:1001700080830895CF93DF93CDB7DEB7AD970FB6E9
:10018000F894DEBF0FBECDBF86E091E090933801BA
:100190008093370185E0E4E1F1E0DE011196019002
:1001A0000D928A95E1F7209A28980E94AA007894E7
:1001B0000E945D008C01AE014F5F5F4F60E070E018
:1001C0000E94920121E030E0AE014A5F5F4F60E0A3
:1001D000C8010E9484017E012DE0E20EF11C0F2E69
:1001E000F0E2CF2EF1E0DF2EF02DAE2CBF2C80916F
:1001F00030018823E1F31092300123C0BE01655F16
:100200007F4FC8010E9426038A2D9B2D0E948500E6
:10021000DF92CF920E948004FF92EF920E948004AE
:100220008EE291E00E9496048FEF99E628E18150DA
:1002300090402040E1F700C000000F900F900F9019
:100240000F90C8010E94F9018111D8CFAE014F5F14
:100250005F4F60E070E0C8010E949201C8CFFC01CE
:10026000A62FB72F9C012B5F3F4F91919D93E217D3
:10027000F307D9F7089580E190E00E94560320E14A
:10028000FC0111922A95E9F70895CF93DF93EC01D1
:10029000DA01E881F981508181E090E00A8002C0B2
:1002A000880F991F0A94E2F78095852380836EBD9D
:1002B0000DB407FEFDCF8EB58F872115310579F07E
:1002C000FD012A0F3B1FDF0190819EBD0DB407FE8B
:1002D000FDCF9EB59C933196E217F307A1F7E88115
:1002E000F981208181E090E00A8002C0880F991F87
:1002F0000A94E2F7822B80838F85DF91CF91089556
:1003000060620E94450108950E944501089520E021
:1003100030E040E050E06FEF0E94450108950E94F8
:1003200087010895DF92EF92FF920F931F93CF936F
:10033000DF9300D000D000D0CDB7DEB77C01D62E41
:10034000CA01BE016F5F7F4F0E942F016AE06D0DF1
:1003500025E030E0AE014F5F5F4FC7010E94800192
:1003600021E030E0AE014A5F5F4F62E0C7010E94CA
:10037000840101E010E0C80102C0880F991FDA94DF
:10038000E2F79E81892B8E8321E030E0AE014A5F47
:100390005F4F62E0C7010E948001D7011396ED9183
:1003A000FC911497808115960C9002C0000F111FCC
:1003B0000A94E2F7082B008326960FB6F894DEBF66
:1003C0000FBECDBFDF91CF911F910F91FF90EF90A6
:1003D000DF900895FC0127852E7030E03595279534
:1003E000263031051CF4822F932F08958FEF9FEF55
:1003F0000895CF93DF93EC01EB81FC81208181E0B4
:1004000090E00D8002C0880F991F0A94E2F7809552
:1004100082238083CE010E948F01CE010E94EA01D7
:10042000892F8095881F8827881FDF91CF91089595
:10043000CF93DF931F92CDB7DEB720E7298321E06A
:1004400030E0AE014F5F5F4F67E00E9480010F9088
:10045000DF91CF910895FF920F931F93CF93DF9376
:100460001F92CDB7DEB78C01DC01ED91FC911197A5
:10047000429181E090E09C0112960C90129702C08C
:10048000220F331F0A94E2F7242B20831396ED9159
:10049000FC91149742919C0115960C90159702C0FF
:1004A000220F331F0A94E2F7242B2083ED91FC9155
:1004B000119740819C0112960C90129702C0220F56
:1004C000331F0A94E2F7242B20831396ED91FC91BD
:1004D00014973081AC0115960C90159702C0440F0B
:1004E000551F0A94E2F7242F2095232320832CB54F
:1004F00020612CBD2CB520642CBD1696ED91FC918D
:10050000179742919C0118960C90189702C0220FE1
:10051000331F0A94E2F7242B20831996ED91FC9166
:100520001A9742919C011B960C901B9702C0220FB8
:10053000331F0A94E2F7242B20831C96ED91FC9143
:100540001D9722911E960C9002C0880F991F0A9445
:10055000E2F78095822380838CB5877F8CBD8CB534
:100560008B7F8CBD8CB58E7F8CBD8CB58D7F8CBD0B
:100570008DB581608DBD8CB58F7D8CBD20E030E068
:1005800040E050E062EEC8010E94450120E030E00A
:1005900040E050E061EEC8010E944501C8010E94A0
:1005A00018028FE0898321E030E0AE014F5F5F4F9A
:1005B00060E0C8010E9480010F2EFFE3FF2EF02DA6
:1005C000F98221E030E0AE014F5F5F4F61E0C8018A
:1005D0000E948001F98221E030E0AE014F5F5F4F61
:1005E0006CE1C8010E94800184E0898321E030E051
:1005F000AE014F5F5F4F6DE1C8010E94800119821B
:1006000021E030E0AE014F5F5F4F62E0C8010E9421
:1006100080010F90DF91CF911F910F91FF9008956E
:10062000CF93DF931F92CDB7DEB7FC01978590641F
:10063000998321E030E0AE014F5F5F4F67E0CF016B
:100640000E9480010F90DF91CF9108950F931F9327
:10065000CF93DF938C01EB010E94EA019983888399
:10066000C8010E9410038881998199231CF41AA261
:1006700080E017C021E030E0AE014E5D5F4F60E6E4
:10068000C8010E9484012AA1222351F030E0AE016A
:100690004E5F5F4F61E6C8010E94450181E001C0E5
:1006A00081E0DF91CF911F910F9108950F931F93D8
:1006B000CF93DF938230910510F482E090E0E091D7
:1006C0003301F091340120E030E0A0E0B0E0309759
:1006D00019F1408151810281138148175907C8F0EF
:1006E0008417950769F4109731F012960C931297BE
:1006F00013961C9327C0009333011093340122C03A
:100700002115310519F04217530718F49A01BD015C
:10071000EF01DF01F801DBCF21153105F9F0281BCE
:10072000390B2430310580F48A819B816115710574
:1007300021F0FB019383828304C090933401809362
:100740003301FE01329644C0FE01E20FF31F819394
:10075000919322503109398328833AC02091310185
:1007600030913201232B41F4209102013091030199
:100770003093320120933101209100013091010129
:100780002115310541F42DB73EB740910401509138
:100790000501241B350BE0913101F0913201E21784
:1007A000F307A0F42E1B3F0B2817390778F0AC0194
:1007B0004E5F5F4F2417350748F04E0F5F1F509371
:1007C0003201409331018193919302C0E0E0F0E067
:1007D000CF01DF91CF911F910F910895CF93DF93B8
:1007E000009709F481C0FC01329713821282A09114
:1007F0003301B0913401109781F420813181820F4F
:10080000931F20913101309132012817390751F59A
:10081000F0933201E093310167C0ED0120E030E058
:10082000CE17DF0740F44A815B819E0141155105D7
:10083000F1F0EA01F5CFD383C28340815181840F67
:10084000951FC817D90759F488819981840F951F7E
:100850000296918380838A819B8193838283211571
:10086000310529F4F0933401E09333013DC0E901EF
:10087000FB83EA8349915991C40FD51FEC17FD07FB
:1008800061F480819181840F951F0296E90199831B
:100890008883828193819B838A83E0E0F0E01296D3
:1008A0008D919C911397009719F0FD01DC01F7CF12
:1008B0008D919C9111979D012E5F3F4F820F931F49
:1008C00020913101309132012817390769F43097AE
:1008D00029F4109234011092330102C01382128263
:1008E000B0933201A0933101DF91CF910895FB01C4
:1008F000DC018D91019080190110D9F3990B0895B5
:10090000A0E0B0E0E6E8F4E00C946707AE014B5FCE
:100910005F4FFA0161917191AF0180913701909120
:1009200038010E94C604E2E00C9483070F931F93E2
:10093000CF93DF93E0913701F0913801238121FFBC
:100940001BC08C01D0E0C0E0F80181918F01609163
:10095000370170913801DB011896ED91FC911997E0
:10096000882331F00995892B79F3DFEFCFEFECCFB6
:100970008AE00995892B19F08FEF9FEF02C08D2F28
:100980009C2FDF91CF911F910F910895ABE0B0E0C4
:10099000ECECF4E00C9457076C017B018A01FC013C
:1009A00017821682838181FFCCC1CE0101963C0162
:1009B000F6019381F70193FD859193FF81917F016A
:1009C000882309F4BAC1853239F493FD859193FFE8
:1009D00081917F01853229F4B60190E00E94BD0625
:1009E000E7CF912C212C312CFFE1F315D8F08B327D
:1009F00079F038F4803279F08332A1F4232D20612C
:100A00001DC08D3261F0803369F4232D216016C042
:100A1000832D8260382EE32DE4603E2E2AC0F32D14
:100A2000F8601DC037FC2DC020ED280F2A3040F0A3
:100A30008E32B9F436FC81C1232D2064322E19C0C8
:100A400036FE06C08AE0989E200D1124922E11C019
:100A5000EAE02E9E200D1124222EF32DF0623F2E6F
:100A600008C08C3621F4832D8068382E02C0883669
:100A700041F4F70193FD859193FF81917F018111ED
:100A8000B3CF982F9F7D9554933028F40C5F1F4F60
:100A90009FE399830DC0833631F0833771F083353E
:100AA00009F059C021C0F801808189830E5F1F4F72
:100AB00088248394912C530113C02801F2E04F0E37
:100AC000511CF801A080B18036FE03C0692D70E092
:100AD00002C06FEF7FEFC5010E94B2064C01820198
:100AE000F32DFF773F2E16C0280122E0420E511C45
:100AF000F801A080B18036FE03C0692D70E002C00D
:100B00006FEF7FEFC5010E94A7064C01F32DF0683F
:100B10003F2E820133FC1BC0822D90E0881699067F
:100B2000B0F4B60180E290E00E94BD062A94F4CFB2
:100B3000F50137FC859137FE81915F01B60190E0A8
:100B40000E94BD0621102A9421E0821A9108811486
:100B5000910471F7E8C0843611F0893641F5F80147
:100B600037FE07C060817181828193810C5F1F4FC6
:100B700008C060817181072E000C880B990B0E5FF5
:100B80001F4FF32DFF763F2E97FF09C0909580955C
:100B9000709561957F4F8F4F9F4FF0683F2E2AE0F1
:100BA00030E0A3010E94F906882E861845C08537DB
:100BB00031F4232D2F7EB22E2AE030E025C0932D74
:100BC000997FB92E8F36C1F018F4883579F0B5C009
:100BD000803719F0883721F0B0C0E92FE061BE2ED0
:100BE000B4FE0DC0FB2DF460BF2E09C034FE0AC058
:100BF000292F2660B22E06C028E030E005C020E193
:100C000030E002C020E132E0F801B7FE07C06081A9
:100C10007181828193810C5F1F4F06C06081718159
:100C200080E090E00E5F1F4FA3010E94F906882E1E
:100C30008618FB2DFF773F2E36FE0DC0232D2E7F0D
:100C4000A22E891458F434FE0BC032FC09C0832D47
:100C50008E7EA82E05C0B82CA32C03C0B82C01C0D2
:100C6000B92CA4FE0FC0FE01E80DF11D8081803378
:100C700021F49A2D997EA92E09C0A2FE06C0B39434
:100C8000B39404C08A2D867809F0B394A3FC11C0F4
:100C9000A0FE06C0B21488F4280C922C9B180EC03B
:100CA000B21460F4B60180E290E00E94BD06B394F5
:100CB000F7CFB21418F42B1802C0982C212CA4FEE4
:100CC00010C0B60180E390E00E94BD06A2FE17C0EE
:100CD000A1FC03C088E790E002C088E590E0B6017F
:100CE0000CC08A2D867859F0A1FE02C08BE201C0AB
:100CF00080E2A7FC8DE2B60190E00E94BD06891457
:100D000038F4B60180E390E00E94BD069A94F7CFD4
:100D10008A94F301E80DF11D8081B60190E00E94F4
:100D2000BD068110F5CF222009F442CEB60180E243
:100D300090E00E94BD062A94F6CFF6018681978145
:100D400002C08FEF9FEF2B96E2E10C947307FC013A
:100D50000590615070400110D8F7809590958E0FE6
:100D60009F1F0895FC016150704001900110D8F759
:100D7000809590958E0F9F1F08950F931F93CF938B
:100D8000DF93FB01238121FD03C08FEF9FEF2CC078
:100D900022FF16C0468157812481358142175307AF
:100DA00044F4A081B1819D012F5F3F4F31832083A7
:100DB0008C93268137812F5F3F4F3783268314C062
:100DC0008B01EC01FB010084F185E02D0995892B55
:100DD000E1F6D80116968D919C911797019617967A
:100DE0009C938E931697CE01DF91CF911F910F9117
:100DF0000895FA01AA27283051F1203181F1E894B1
:100E00006F936E7F6E5F7F4F8F4F9F4FAF4FB1E0FD
:100E10003ED0B4E03CD0670F781F891F9A1FA11DF8
:100E2000680F791F8A1F911DA11D6A0F711D811DF9
:100E3000911DA11D20D009F468943F912AE0269FBE
:100E400011243019305D3193DEF6CF010895462F1D
:100E50004770405D4193B3E00FD0C9F7F6CF462FFE
:100E60004F70405D4A3318F0495D31FD4052419367
:100E700002D0A9F7EACFB4E0A69597958795779524
:100E80006795BA95C9F700976105710508959B01AB
:100E9000AC010A2E06945795479537952795BA9534
:100EA000C9F7620F731F841F951FA01D08952F920D
:100EB0003F924F925F926F927F928F929F92AF92EA
:100EC000BF92CF92DF92EF92FF920F931F93CF9337
:100ED000DF93CDB7DEB7CA1BDB0B0FB6F894DEBFCE
:100EE0000FBECDBF09942A88398848885F846E84F4
:100EF0007D848C849B84AA84B984C884DF80EE803E
:100F0000FD800C811B81AA81B981CE0FD11D0FB646
:100F1000F894DEBF0FBECDBFED010895F894FFCF6A
:100F200000003B0120000000000200000000530010
:100F30000000000001010101014F4E004F46460034
:100F400054656D70657261747572653A20000D00AC
:00000001FF
