:100000000C94B1000C9420020C94CE000C94CE0001
:100010000C94CE000C94CE000C94CE000C94CE0028
:100020000C94CE000C94CE000C94CE000C941102D3
:100030000C94CE000C94CE000C94CE000C94CE0008
:100040000C94CE000C94CE000C94CE000C94CE00F8
:100050000C94CE000C94C9010C94CE000C94CE00EC
:100060000C94CE000C94CE0000407A10F35A00A0FD
:10007000724E18090010A5D4E80000E87648170071
:1000800000E40B54020000CA9A3B000000E1F505B1
:10009000000080969800000040420F000000A086FB
:1000A00001000000102700000000E803000000002D
:1000B0006400000000000A000000000001000000D1
:1000C00000002C76D888DC674F0823DFC1DFAE59EB
:1000D000E1B1B796E5E3E453C63AE651997696E87E
:1000E000E6C28426EB898C9B62ED407C6FFCEFBC02
:1000F0009C9F40F2BAA56FA5F490055A2AF75C932D
:100100006B6CF9676DC11BFCE0E40D47FEF520E662
:10011000B500D0ED902E0300943577050080841E45
:10012000080000204E0A000000C80C333333330FA0
:10013000986E12831141EF8D2114893BE65516CF3D
:10014000FEE6DB18D1844B381BF77C1D901DA4BB49
:10015000E424203284725E228100C9F124ECA1E5FE
:100160003D2711241FBECFEFD8E0DEBFCDBF11E089
:10017000A0E0B1E0EAECF7E102C005900D92AA32EE
:10018000B107D9F721E0AAE2B1E001C01D92A53480
:10019000B207E1F70E944E010C94E30B0C940000AF
:1001A000CF93C82F8A3019F48DE00E94D000E0EC84
:1001B000F0E0808185FFFDCFC093C60080E090E035
:1001C000CF910895CF93DF930E943B02EC0185E22B
:1001D00090E09983888322E02A839C838B8321E0AB
:1001E0002D839F838E8325E028879A87898723E044
:1001F0002B879D878C8784E08E87E9E6F0E08081FD
:1002000082608083E89ACE010E94AD02CE01DF9128
:10021000CF910895E1E8F0E0808188608083AFE6C7
:10022000B0E08C9182608C9388E09DE3909389008C
:100230008093880080818360808308951092C50038
:1002400087E68093C400E1ECF0E0808188618083E0
:1002500080818068808386E08093C20086E091E0A0
:1002600090934201809341010895ECE7F0E0808192
:1002700080648083EAE7F0E080818760808380810A
:100280008062808310927B0080818068808380817F
:10029000886080838081806480830895CF93DF931A
:1002A000CDB7DEB7A8970FB6F894DEBF0FBECDBFAF
:1002B00085E0E4E1F1E0DE01119601900D928A956E
:1002C000E1F70E941E010E94350178940E94E2002D
:1002D0007C010E940A01912C882483940F2EF9E15D
:1002E000AF2EF1E0BF2EF02D6E0128E0C20ED11C22
:1002F00080912B01882351F010922B01C7010E949D
:100300001504892B19F0C7010E94920280912A01DD
:10031000882371F310922A01982459F160912C01DD
:1003200070912D0180912E0190912F0100E311E039
:1003300020E043E00E9492051F930F93BF92AF927B
:100340000E94D306F80180819181F6019183808318
:10035000F8018281F6018283FFEF23ED80E3F15003
:1003600020408040E1F700C000000F900F900F90F8
:100370000F90F60101900020E9F7EC19E8A7AE0113
:100380004A5F5F4FBE016F5F7F4FC7010E94A503A9
:10039000AFCF1F920F920FB60F9211242F933F935E
:1003A0004F935F936F937F938F939F93AF93BF937D
:1003B000EF93FF93809178009091790080933A01B8
:1003C00060913A0170E080E090E00E94990420E0A2
:1003D00030E04AEF5EE30E94FD040E9468046093EF
:1003E0003A0160913A0170E080E090E00E94970449
:1003F00060932C0170932D0180932E0190932F0117
:10040000FF91EF91BF91AF919F918F917F916F91EC
:100410005F914F913F912F910F900FBE0F901F90C2
:1004200018951F920F920FB60F9211248F9381E0AF
:1004300080932A018F910F900FBE0F901F901895F7
:100440001F920F920FB60F9211248F9381E0809329
:100450002B018F910F900FBE0F901F901895FC01EC
:10046000A62FB72F9C012B5F3F4F91919D93E217D1
:10047000F307D9F7089580E190E00E94B20520E1EA
:10048000FC0111922A95E9F70895CF93DF93EC01CF
:10049000DA01E881F981508181E090E00A8002C0B0
:1004A000880F991F0A94E2F78095852380836EBD9B
:1004B0000DB407FEFDCF8EB58F872115310579F07C
:1004C000FD012A0F3B1FDF0190819EBD0DB407FE89
:1004D000FDCF9EB59C933196E217F307A1F7E88113
:1004E000F981208181E090E00A8002C0880F991F85
:1004F0000A94E2F7822B80838F85DF91CF91089554
:1005000060620E94450208950E944502089520E01D
:1005100030E040E050E06FEF0E94450208950E94F5
:100520008702089520E030E040E050E061EE0E9454
:1005300045020895CF93DF931F92CDB7DEB720E732
:10054000298321E030E0AE014F5F5F4F67E00E94FA
:1005500080020F90DF91CF910895FF920F931F9328
:10056000CF93DF931F92CDB7DEB78C01DC01ED9105
:10057000FC911197429181E090E09C0112960C90C1
:10058000129702C0220F331F0A94E2F7242B208314
:100590001396ED91FC91149742919C0115960C9045
:1005A000159702C0220F331F0A94E2F7242B2083F1
:1005B000ED91FC91119740819C0112960C9012973D
:1005C00002C0220F331F0A94E2F7242B20831396D4
:1005D000ED91FC9114973081AC0115960C90159714
:1005E00002C0440F551F0A94E2F7242F20952323BD
:1005F00020832CB520612CBD2CB520642CBD169613
:10060000ED91FC91179742919C0118960C901897C8
:1006100002C0220F331F0A94E2F7242B208319967D
:10062000ED91FC911A9742919C011B960C901B979F
:1006300002C0220F331F0A94E2F7242B20831C965A
:10064000ED91FC911D9722911E960C9002C0880F8F
:10065000991F0A94E2F78095822380838CB5877F67
:100660008CBD8CB58B7F8CBD8CB58E7F8CBD8CB5D5
:100670008D7F8CBD8DB581608DBD8CB58F7D8CBD22
:1006800020E030E040E050E062EEC8010E94450208
:1006900020E030E040E050E061EEC8010E944502F9
:1006A000C8010E949A028FE0898321E030E0AE0108
:1006B0004F5F5F4F60E0C8010E9480020F2EFFE392
:1006C000FF2EF02DF98221E030E0AE014F5F5F4F49
:1006D00061E0C8010E948002F98221E030E0AE01B1
:1006E0004F5F5F4F6CE1C8010E94800284E0898304
:1006F00021E030E0AE014F5F5F4F6DE1C8010E9425
:100700008002198221E030E0AE014F5F5F4F62E06E
:10071000C8010E9480020F90DF91CF911F910F912D
:10072000FF900895CF93DF931F92CDB7DEB720E3FC
:10073000298321E030E0AE014F5F5F4F67E00E9408
:1007400080020F90DF91CF910895CF92DF92EF92C8
:10075000FF920F931F93CF93DF9300D000D000D070
:10076000CDB7DEB78C016B017A010E949203BE0106
:100770006F5F7F4FC6010E942F0225E030E0AE017F
:100780004F5F5F4F60E1C8010E948002BE016F5F52
:100790007F4FC6010E942F0225E030E0AE014F5F7F
:1007A0005F4F6AE0C8010E948002D70192962C91A7
:1007B00030E0A7014E5F5F4F60EAC8010E9445022A
:1007C00021E030E0AE014A5F5F4F60E0C8010E9467
:1007D00084028E818E7F8E8321E030E0AE014A5FFD
:1007E0005F4F60E0C8010E948002D8011396ED912E
:1007F000FC911497208181E090E015960C9002C046
:10080000880F991F0A94E2F7822B808326960FB6F1
:10081000F894DEBF0FBECDBFDF91CF911F910F9136
:10082000FF90EF90DF90CF900895EF92FF920F939B
:100830001F93CF93DF931F92CDB7DEB78C01DC01FE
:100840001396ED91FC911497208181E090E015962C
:100850000C9002C0880F991F0A94E2F780958223BA
:100860008083C8010E948F02F801878585FD09C039
:1008700084FD0AC00F2EFEEFEF2EFF24FA94F02D18
:1008800006C0E12CF12C03C0EE24EA94FE2CC80132
:100890000E94920321E030E0AE014F5F5F4F60E0C5
:1008A000C8010E94840289818160898321E030E04F
:1008B000AE014F5F5F4F60E0C8010E948002C70138
:1008C0000F90DF91CF911F910F91FF90EF900895BE
:1008D0000E94DC0488F09F5798F0B92F9927B751F0
:1008E000B0F0E1F0660F771F881F991F1AF0BA95D4
:1008F000C9F714C0B13091F00E94F604B1E0089538
:100900000C94F604672F782F8827B85F39F0B93F29
:10091000CCF3869577956795B395D9F73EF4909586
:100920008095709561957F4F8F4F9F4F0895E89404
:1009300009C097FB3EF490958095709561957F4F27
:100940008F4F9F4F9923A9F0F92F96E9BB279395D5
:10095000F695879577956795B795F111F8CFFAF4E5
:10096000BB0F11F460FF1BC06F5F7F4F8F4F9F4F16
:1009700016C0882311F096E911C0772321F09EE874
:10098000872F762F05C0662371F096E8862F70E0DA
:1009900060E02AF09A95660F771F881FDAF7880FB4
:1009A0009695879597F9089557FD9058440F551FD0
:1009B00059F05F3F71F04795880F97FB991F61F0E1
:1009C0009F3F79F087950895121613061406551F58
:1009D000F2CF4695F1DF08C0161617061806991FC4
:1009E000F1CF86957105610508940895E894BB27B9
:1009F00066277727CB0197F908950E9410050C947C
:100A000081050E94730538F00E947A0520F0952335
:100A100011F00C946A050C94700511240C94F704E1
:100A20000E94D40470F3959FC1F3950F50E0551FB9
:100A3000629FF001729FBB27F00DB11D639FAA2733
:100A4000F00DB11DAA1F649F6627B00DA11D661F82
:100A5000829F2227B00DA11D621F739FB00DA11DA3
:100A6000621F839FA00D611D221F749F3327A00D5D
:100A7000611D231F849F600D211D822F762F6A2FF9
:100A800011249F5750409AF0F1F088234AF0EE0F5E
:100A9000FF1FBB1F661F771F881F91505040A9F78B
:100AA0009E3F510580F00C946A050C94F7045F3F5B
:100AB000E4F3983ED4F3869577956795B795F795C7
:100AC000E7959F5FC1F7FE2B880F911D969587953F
:100AD00097F9089597F99F6780E870E060E00895BE
:100AE0009FEF80EC089500240A9416161706180646
:100AF0000906089500240A94121613061406050622
:100B00000895092E0394000C11F4882352F0BB0FB2
:100B100040F4BF2B11F460FF04C06F5F7F4F8F4F15
:100B20009F4F0895EF920F931F93CF93DF93E801A8
:100B300047FD02C034E001C034E1042E000C550B27
:100B400057FF03C0519541955109E32E022F242FE1
:100B5000AE010E94CA08CE01DF91CF911F910F9183
:100B6000EF9008950F931F93CF93DF9382309105F9
:100B700010F482E090E0E0913D01F0913E0120E030
:100B800030E0A0E0B0E0309719F14081518102815E
:100B9000138148175907C8F08417950769F410970F
:100BA00031F012960C93129713961C9327C0009362
:100BB0003D0110933E0122C02115310519F0421765
:100BC000530718F49A01BD01EF01DF01F801DBCFF3
:100BD00021153105F9F0281B390B2430310580F43B
:100BE0008A819B816115710521F0FB0193838283CA
:100BF00004C090933E0180933D01FE01329644C0B3
:100C0000FE01E20FF31F8193919322503109398342
:100C100028833AC020913B0130913C01232B41F4C1
:100C2000209102013091030130933C0120933B015C
:100C300020910001309101012115310541F42DB7BA
:100C40003EB74091040150910501241B350BE09102
:100C50003B01F0913C01E217F307A0F42E1B3F0B80
:100C60002817390778F0AC014E5F5F4F241735071E
:100C700048F04E0F5F1F50933C0140933B0181931E
:100C8000919302C0E0E0F0E0CF01DF91CF911F919E
:100C90000F910895CF93DF93009709F481C0FC0171
:100CA000329713821282A0913D01B0913E011097BC
:100CB00081F420813181820F931F20913B0130917B
:100CC0003C012817390751F5F0933C01E0933B01B3
:100CD00067C0ED0120E030E0CE17DF0740F44A8125
:100CE0005B819E0141155105F1F0EA01F5CFD383F7
:100CF000C28340815181840F951FC817D90759F4C9
:100D000088819981840F951F0296918380838A81BF
:100D10009B81938382832115310529F4F0933E0151
:100D2000E0933D013DC0E901FB83EA83499159917C
:100D3000C40FD51FEC17FD0761F480819181840FEA
:100D4000951F0296E90199838883828193819B8311
:100D50008A83E0E0F0E012968D919C9113970097C2
:100D600019F0FD01DC01F7CF8D919C9111979D0148
:100D70002E5F3F4F820F931F20913B0130913C012A
:100D80002817390769F4309729F410923E01109220
:100D90003D0102C013821282B0933C01A0933B013B
:100DA000DF91CF910895A0E0B0E0E9EDF6E00C947A
:100DB000BC0BAE014B5F5F4FFA0161917191AF01C6
:100DC00080914101909142010E94E906E2E00C9479
:100DD000D80BABE0B0E0EFEEF6E00C94AC0B6C019E
:100DE0007B018A01FC0117821682838181FFCCC1BD
:100DF000CE0101963C01F6019381F70193FD8591A7
:100E000093FF81917F01882309F4BAC1853239F4B7
:100E100093FD859193FF81917F01853229F4B6017D
:100E200090E00E94120BE7CF912C212C312CFFE196
:100E3000F315D8F08B3279F038F4803279F08332C0
:100E4000A1F4232D20611DC08D3261F0803369F43F
:100E5000232D216016C0832D8260382EE32DE4609F
:100E60003E2E2AC0F32DF8601DC037FC2DC020EDAA
:100E7000280F2A3040F08E32B9F436FC81C1232D80
:100E80002064322E19C036FE06C08AE0989E200DDE
:100E90001124922E11C0EAE02E9E200D1124222E44
:100EA000F32DF0623F2E08C08C3621F4832D80682C
:100EB000382E02C0883641F4F70193FD859193FFE7
:100EC00081917F018111B3CF982F9F7D95549330ED
:100ED00028F40C5F1F4F9FE399830DC0833631F0D8
:100EE000833771F0833509F059C021C0F801808142
:100EF00089830E5F1F4F88248394912C530113C064
:100F00002801F2E04F0E511CF801A080B18036FE9E
:100F100003C0692D70E002C06FEF7FEFC5010E9432
:100F2000070B4C018201F32DFF773F2E16C02801DD
:100F300022E0420E511CF801A080B18036FE03C0B1
:100F4000692D70E002C06FEF7FEFC5010E94FC0ABF
:100F50004C01F32DF0683F2E820133FC1BC0822D23
:100F600090E088169906B0F4B60180E290E00E9405
:100F7000120B2A94F4CFF50137FC859137FE81914D
:100F80005F01B60190E00E94120B21102A9421E02B
:100F9000821A91088114910471F7E8C0843611F027
:100FA000893641F5F80137FE07C060817181828181
:100FB00093810C5F1F4F08C060817181072E000C68
:100FC000880B990B0E5F1F4FF32DFF763F2E97FF77
:100FD00009C090958095709561957F4F8F4F9F4F79
:100FE000F0683F2E2AE030E0A3010E944E0B882ECD
:100FF000861845C0853731F4232D2F7EB22E2AE086
:1010000030E025C0932D997FB92E8F36C1F018F4AA
:10101000883579F0B5C0803719F0883721F0B0C035
:10102000E92FE061BE2EB4FE0DC0FB2DF460BF2E93
:1010300009C034FE0AC0292F2660B22E06C028E05F
:1010400030E005C020E130E002C020E132E0F801EC
:10105000B7FE07C060817181828193810C5F1F4F51
:1010600006C06081718180E090E00E5F1F4FA30198
:101070000E944E0B882E8618FB2DFF773F2E36FEE2
:101080000DC0232D2E7FA22E891458F434FE0BC0E0
:1010900032FC09C0832D8E7EA82E05C0B82CA32C4F
:1010A00003C0B82C01C0B92CA4FE0FC0FE01E80D8E
:1010B000F11D8081803321F49A2D997EA92E09C0DB
:1010C000A2FE06C0B394B39404C08A2D867809F0BA
:1010D000B394A3FC11C0A0FE06C0B21488F4280C7F
:1010E000922C9B180EC0B21460F4B60180E290E01E
:1010F0000E94120BB394F7CFB21418F42B1802C04D
:10110000982C212CA4FE10C0B60180E390E00E9430
:10111000120BA2FE17C0A1FC03C088E790E002C03A
:1011200088E590E0B6010CC08A2D867859F0A1FEC2
:1011300002C08BE201C080E2A7FC8DE2B60190E024
:101140000E94120B891438F4B60180E390E00E94EB
:10115000120B9A94F7CF8A94F301E80DF11D808168
:10116000B60190E00E94120B8110F5CF222009F405
:1011700042CEB60180E290E00E94120B2A94F6CF94
:10118000F6018681978102C08FEF9FEF2B96E2E1F7
:101190000C94C80BA9E0B0E0E0EDF8E00C94B20BC1
:1011A0006A01122FB02E2BE3201720F0FF24F394B6
:1011B000F00E02C02CE3F22E0F2D27E0AE014F5FA0
:1011C0005F4F0E94240ABC014981842F89708130BD
:1011D00031F0E1FC06C0E0FE06C090E205C09DE2F1
:1011E00003C09BE201C090E05E2D507143FF3CC004
:1011F000911102C083E001C084E0811718F4212F0F
:10120000281B01C020E051110BC0F601822F30E2F3
:10121000882319F031938150FBCFC20ED11C20E0FE
:10122000992329F0D6019C93F60131966F01C601EE
:101230000396E2FE0AC03EE4D6013C9341E41196D7
:101240004C93119712963C9306C03EE6F60130830C
:1012500041E641833283FC01322F40E2332309F41B
:1012600042C041933150FACF42FF44C0911102C0B5
:1012700083E001C084E0811718F4212F281B01C0EE
:1012800020E051110BC0F601822F30E2882319F0C3
:1012900031938150FBCFC20ED11C20E0992329F05D
:1012A000D6019C93F60131966F01C6010396E2FECA
:1012B0000BC039E4D6013C933EE411963C93119760
:1012C00036E412963C9307C039E6F60130833EE6D9
:1012D000318336E63283FC01322F40E2332319F0AA
:1012E00041933150FBCFFC01E20FF11D10828EEFD4
:1012F0009FEFA6C021E030E0911102C020E030E075
:10130000161617061CF4FB01319602C0E1E0F0E06E
:101310002E0F3F1FBB2021F0EB2DF0E0319602C0D5
:10132000E0E0F0E02E0F3F1FE12FF0E02E173F0727
:101330001CF4121B212F01C020E08E2D887159F45E
:10134000F601822F30E2882319F031938150FBCFD0
:10135000C20ED11C20E0992329F0D6019C93F601FE
:1013600031966F0151110BC0F601822F90E3882353
:1013700019F091938150FBCFC20ED11C20E00F2DAC
:10138000060F9A81342F307144FF03C0913309F462
:101390000150101624F4093018F008E001C001E0F3
:1013A000AB0177FF02C040E050E0FB01E41BF50B0E
:1013B000A1E0B0E0AC0FBD1FEA0FFB1F8EE2A82E2C
:1013C0004B01801A91080B2D10E011950195110920
:1013D0004F3FBFEF5B0721F4D601AC9211966D0130
:1013E000641775072CF08416950614F4818101C0EA
:1013F00080E3415051093196D60111967D01401785
:10140000510724F0D6018C936701E2CF641775076A
:1014100039F4963320F4953319F4311101C081E386
:10142000F6018083F701822F90E2882319F09193CF
:101430008150FBCFF701E20FF11D108280E090E0B8
:101440002996ECE00C94CE0B283008F027E03327E7
:10145000DA01990F311D87FD9160009661057105D4
:1014600039F432602E5F3D9330E32A95E1F7089519
:101470009F3F30F080387105610509F03C5F3C5FAB
:101480003D93913008F08068911DDF93CF931F93B7
:101490000F93FF92EF92192F987F9695E92F9695CB
:1014A0009695E90FFF27EE53FF4F99273327EE2438
:1014B000FF24A701E70105900894079428F4360F4C
:1014C000E71EF81E491F511D660F771F881F991FC1
:1014D0000694A1F70590079428F4E70EF81E491F1B
:1014E000561FC11D770F881F991F661F0694A1F70D
:1014F0000590079428F4F80E491F561FC71FD11DE9
:10150000880F991F661F771F0694A1F7059007940F
:1015100020F4490F561FC71FD81F990F661F771F4A
:10152000881F0694A9F784911095177041F0D695FD
:10153000C79557954795F794E7941A95C1F7E8E64C
:10154000F0E068941590159135916591959105900D
:101550007FE27395E118F10A430B560BC90BD009D2
:10156000C0F7E10CF11E431F561FC91FD01D7EF4AA
:10157000703311F48A95E6CFE894015030F0080FEB
:101580000AF40027021708F4202F2395022F7A333C
:1015900028F079E37D932A95E9F710C07D932A9589
:1015A00089F6069497956795379517951794E118DE
:1015B000F10A430B560BC90BD00998F023957E9185
:1015C00073957A3308F070E37C932013B8F77E911B
:1015D00070617D9330F0839571E37D9370E32A957C
:1015E000E1F71124EF90FF900F911F91CF91DF91C0
:1015F000992787FD90950895FC01059061507040F2
:101600000110D8F7809590958E0F9F1F0895FC01CB
:101610006150704001900110D8F7809590958E0F21
:101620009F1F08950F931F93CF93DF93FB01238197
:1016300021FD03C08FEF9FEF2CC022FF16C0468113
:101640005781248135814217530744F4A081B18129
:101650009D012F5F3F4F318320838C9326813781FB
:101660002F5F3F4F3783268314C08B01EC01FB01B2
:101670000084F185E02D0995892BE1F6D8011696B5
:101680008D919C911797019617969C938E93169720
:10169000CE01DF91CF911F910F910895FA01AA27F2
:1016A000283051F1203181F1E8946F936E7F6E5FA5
:1016B0007F4F8F4F9F4FAF4FB1E03ED0B4E03CD053
:1016C000670F781F891F9A1FA11D680F791F8A1F36
:1016D000911DA11D6A0F711D811D911DA11D20D09D
:1016E00009F468943F912AE0269F11243019305D57
:1016F0003193DEF6CF010895462F4770405D419348
:10170000B3E00FD0C9F7F6CF462F4F70405D4A3394
:1017100018F0495D31FD4052419302D0A9F7EACF5C
:10172000B4E0A6959795879577956795BA95C9F78B
:1017300000976105710508959B01AC010A2E06947E
:101740005795479537952795BA95C9F7620F731F37
:10175000841F951FA01D08952F923F924F925F9274
:101760006F927F928F929F92AF92BF92CF92DF92B1
:10177000EF92FF920F931F93CF93DF93CDB7DEB716
:10178000CA1BDB0B0FB6F894DEBF0FBECDBF0994AA
:101790002A88398848885F846E847D848C849B8401
:1017A000AA84B984C884DF80EE80FD800C811B810F
:1017B000AA81B981CE0FD11D0FB6F894DEBF0FBE3E
:0A17C000CDBFED010895F894FFCFAE
:1017CA000000450120000000000200000000D000D7
:1017DA0000000000010101010154656D706572612C
:0A17EA00747572653A2025730A0039
:00000001FF
